{
  "contractName": "MediaGuard",
  "abi": [
    {
      "inputs": [
        {
          "internalType": "address",
          "name": "_tokenAddress",
          "type": "address"
        }
      ],
      "stateMutability": "nonpayable",
      "type": "constructor"
    },
    {
      "anonymous": false,
      "inputs": [
        {
          "indexed": true,
          "internalType": "address",
          "name": "reporter",
          "type": "address"
        },
        {
          "indexed": true,
          "internalType": "address",
          "name": "reported",
          "type": "address"
        }
      ],
      "name": "ContentReported",
      "type": "event"
    },
    {
      "anonymous": false,
      "inputs": [
        {
          "indexed": true,
          "internalType": "address",
          "name": "previousOwner",
          "type": "address"
        },
        {
          "indexed": true,
          "internalType": "address",
          "name": "newOwner",
          "type": "address"
        }
      ],
      "name": "OwnershipTransferred",
      "type": "event"
    },
    {
      "anonymous": false,
      "inputs": [
        {
          "indexed": true,
          "internalType": "uint256",
          "name": "postId",
          "type": "uint256"
        }
      ],
      "name": "PostBlocked",
      "type": "event"
    },
    {
      "anonymous": false,
      "inputs": [
        {
          "indexed": true,
          "internalType": "address",
          "name": "author",
          "type": "address"
        },
        {
          "indexed": true,
          "internalType": "uint256",
          "name": "postId",
          "type": "uint256"
        },
        {
          "indexed": false,
          "internalType": "string",
          "name": "contentHash",
          "type": "string"
        },
        {
          "indexed": false,
          "internalType": "uint256",
          "name": "vulgarityScore",
          "type": "uint256"
        }
      ],
      "name": "PostCreated",
      "type": "event"
    },
    {
      "anonymous": false,
      "inputs": [
        {
          "indexed": true,
          "internalType": "address",
          "name": "user",
          "type": "address"
        },
        {
          "indexed": false,
          "internalType": "uint256",
          "name": "amount",
          "type": "uint256"
        }
      ],
      "name": "RewardPaid",
      "type": "event"
    },
    {
      "anonymous": false,
      "inputs": [
        {
          "indexed": true,
          "internalType": "address",
          "name": "user",
          "type": "address"
        }
      ],
      "name": "UnblockRequested",
      "type": "event"
    },
    {
      "anonymous": false,
      "inputs": [
        {
          "indexed": true,
          "internalType": "address",
          "name": "user",
          "type": "address"
        }
      ],
      "name": "UserBlocked",
      "type": "event"
    },
    {
      "anonymous": false,
      "inputs": [
        {
          "indexed": true,
          "internalType": "address",
          "name": "user",
          "type": "address"
        }
      ],
      "name": "UserUnblocked",
      "type": "event"
    },
    {
      "inputs": [],
      "name": "cooldownPeriod",
      "outputs": [
        {
          "internalType": "uint256",
          "name": "",
          "type": "uint256"
        }
      ],
      "stateMutability": "view",
      "type": "function",
      "constant": true
    },
    {
      "inputs": [
        {
          "internalType": "address",
          "name": "",
          "type": "address"
        }
      ],
      "name": "hasReported",
      "outputs": [
        {
          "internalType": "bool",
          "name": "",
          "type": "bool"
        }
      ],
      "stateMutability": "view",
      "type": "function",
      "constant": true
    },
    {
      "inputs": [
        {
          "internalType": "address",
          "name": "",
          "type": "address"
        }
      ],
      "name": "hasUnblockRequest",
      "outputs": [
        {
          "internalType": "bool",
          "name": "",
          "type": "bool"
        }
      ],
      "stateMutability": "view",
      "type": "function",
      "constant": true
    },
    {
      "inputs": [
        {
          "internalType": "address",
          "name": "",
          "type": "address"
        }
      ],
      "name": "isBlocked",
      "outputs": [
        {
          "internalType": "bool",
          "name": "",
          "type": "bool"
        }
      ],
      "stateMutability": "view",
      "type": "function",
      "constant": true
    },
    {
      "inputs": [
        {
          "internalType": "uint256",
          "name": "",
          "type": "uint256"
        }
      ],
      "name": "isPostBlocked",
      "outputs": [
        {
          "internalType": "bool",
          "name": "",
          "type": "bool"
        }
      ],
      "stateMutability": "view",
      "type": "function",
      "constant": true
    },
    {
      "inputs": [
        {
          "internalType": "address",
          "name": "",
          "type": "address"
        }
      ],
      "name": "lastReportTime",
      "outputs": [
        {
          "internalType": "uint256",
          "name": "",
          "type": "uint256"
        }
      ],
      "stateMutability": "view",
      "type": "function",
      "constant": true
    },
    {
      "inputs": [],
      "name": "owner",
      "outputs": [
        {
          "internalType": "address",
          "name": "",
          "type": "address"
        }
      ],
      "stateMutability": "view",
      "type": "function",
      "constant": true
    },
    {
      "inputs": [
        {
          "internalType": "uint256",
          "name": "",
          "type": "uint256"
        }
      ],
      "name": "posts",
      "outputs": [
        {
          "internalType": "address",
          "name": "author",
          "type": "address"
        },
        {
          "internalType": "string",
          "name": "contentHash",
          "type": "string"
        },
        {
          "internalType": "uint256",
          "name": "vulgarityScore",
          "type": "uint256"
        },
        {
          "internalType": "bool",
          "name": "isBlocked",
          "type": "bool"
        },
        {
          "internalType": "uint256",
          "name": "createdAt",
          "type": "uint256"
        }
      ],
      "stateMutability": "view",
      "type": "function",
      "constant": true
    },
    {
      "inputs": [],
      "name": "renounceOwnership",
      "outputs": [],
      "stateMutability": "nonpayable",
      "type": "function"
    },
    {
      "inputs": [
        {
          "internalType": "address",
          "name": "",
          "type": "address"
        }
      ],
      "name": "reportCount",
      "outputs": [
        {
          "internalType": "uint256",
          "name": "",
          "type": "uint256"
        }
      ],
      "stateMutability": "view",
      "type": "function",
      "constant": true
    },
    {
      "inputs": [],
      "name": "reportThreshold",
      "outputs": [
        {
          "internalType": "uint256",
          "name": "",
          "type": "uint256"
        }
      ],
      "stateMutability": "view",
      "type": "function",
      "constant": true
    },
    {
      "inputs": [],
      "name": "rewardAmount",
      "outputs": [
        {
          "internalType": "uint256",
          "name": "",
          "type": "uint256"
        }
      ],
      "stateMutability": "view",
      "type": "function",
      "constant": true
    },
    {
      "inputs": [],
      "name": "token",
      "outputs": [
        {
          "internalType": "contract MediaGuardToken",
          "name": "",
          "type": "address"
        }
      ],
      "stateMutability": "view",
      "type": "function",
      "constant": true
    },
    {
      "inputs": [
        {
          "internalType": "address",
          "name": "newOwner",
          "type": "address"
        }
      ],
      "name": "transferOwnership",
      "outputs": [],
      "stateMutability": "nonpayable",
      "type": "function"
    },
    {
      "inputs": [
        {
          "internalType": "address",
          "name": "",
          "type": "address"
        }
      ],
      "name": "unblockRequestDate",
      "outputs": [
        {
          "internalType": "uint256",
          "name": "",
          "type": "uint256"
        }
      ],
      "stateMutability": "view",
      "type": "function",
      "constant": true
    },
    {
      "inputs": [
        {
          "internalType": "string",
          "name": "_contentHash",
          "type": "string"
        },
        {
          "internalType": "uint256",
          "name": "_vulgarityScore",
          "type": "uint256"
        }
      ],
      "name": "createPost",
      "outputs": [],
      "stateMutability": "nonpayable",
      "type": "function"
    },
    {
      "inputs": [
        {
          "internalType": "uint256",
          "name": "_postId",
          "type": "uint256"
        }
      ],
      "name": "getPost",
      "outputs": [
        {
          "internalType": "address",
          "name": "author",
          "type": "address"
        },
        {
          "internalType": "string",
          "name": "contentHash",
          "type": "string"
        },
        {
          "internalType": "uint256",
          "name": "vulgarityScore",
          "type": "uint256"
        },
        {
          "internalType": "bool",
          "name": "isBlocked",
          "type": "bool"
        },
        {
          "internalType": "uint256",
          "name": "createdAt",
          "type": "uint256"
        }
      ],
      "stateMutability": "view",
      "type": "function",
      "constant": true
    },
    {
      "inputs": [],
      "name": "getPostCount",
      "outputs": [
        {
          "internalType": "uint256",
          "name": "",
          "type": "uint256"
        }
      ],
      "stateMutability": "view",
      "type": "function",
      "constant": true
    },
    {
      "inputs": [],
      "name": "requestUnblock",
      "outputs": [],
      "stateMutability": "nonpayable",
      "type": "function"
    },
    {
      "inputs": [
        {
          "internalType": "address",
          "name": "reportedUser",
          "type": "address"
        }
      ],
      "name": "reportContent",
      "outputs": [],
      "stateMutability": "nonpayable",
      "type": "function"
    },
    {
      "inputs": [
        {
          "internalType": "address",
          "name": "user",
          "type": "address"
        }
      ],
      "name": "unblockUser",
      "outputs": [],
      "stateMutability": "nonpayable",
      "type": "function"
    },
    {
      "inputs": [
        {
          "internalType": "address",
          "name": "user",
          "type": "address"
        }
      ],
      "name": "payReward",
      "outputs": [],
      "stateMutability": "nonpayable",
      "type": "function"
    },
    {
      "inputs": [
        {
          "internalType": "uint256",
          "name": "_amount",
          "type": "uint256"
        }
      ],
      "name": "setRewardAmount",
      "outputs": [],
      "stateMutability": "nonpayable",
      "type": "function"
    },
    {
      "inputs": [
        {
          "internalType": "uint256",
          "name": "_threshold",
          "type": "uint256"
        }
      ],
      "name": "setReportThreshold",
      "outputs": [],
      "stateMutability": "nonpayable",
      "type": "function"
    },
    {
      "inputs": [
        {
          "internalType": "uint256",
          "name": "_period",
          "type": "uint256"
        }
      ],
      "name": "setCooldownPeriod",
      "outputs": [],
      "stateMutability": "nonpayable",
      "type": "function"
    }
  ],
  "bytecode": "0x6080604052678ac7230489e8000060025560038055620151806008553480156200002857600080fd5b50604051620024703803806200247083398181016040528101906200004e919062000199565b6200006e62000062620000b660201b60201c565b620000be60201b60201c565b80600160006101000a81548173ffffffffffffffffffffffffffffffffffffffff021916908373ffffffffffffffffffffffffffffffffffffffff1602179055505062000213565b600033905090565b60008060009054906101000a900473ffffffffffffffffffffffffffffffffffffffff169050816000806101000a81548173ffffffffffffffffffffffffffffffffffffffff021916908373ffffffffffffffffffffffffffffffffffffffff1602179055508173ffffffffffffffffffffffffffffffffffffffff168173ffffffffffffffffffffffffffffffffffffffff167f8be0079c531659141344cd1fd0a4f28419497f9722a3daafe3b4186f6b6457e060405160405180910390a35050565b6000815190506200019381620001f9565b92915050565b600060208284031215620001ac57600080fd5b6000620001bc8482850162000182565b91505092915050565b6000620001d282620001d9565b9050919050565b600073ffffffffffffffffffffffffffffffffffffffff82169050919050565b6200020481620001c5565b81146200021057600080fd5b50565b61224d80620002236000396000f3fe608060405234801561001057600080fd5b50600436106101735760003560e01c80638da5cb5b116100de578063cb4daae311610097578063f2fde38b11610071578063f2fde38b14610450578063f7b2a7be1461046c578063fbac39511461048a578063fc0c546a146104ba57610173565b8063cb4daae3146103c0578063cbf437fb146103f0578063dbf0fc681461042057610173565b80638da5cb5b146102ec5780638e9b277d1461030a578063a8a65a7814610326578063b167d64f14610342578063bcc9540714610372578063c37cb8d41461039057610173565b806339d319e51161013057806339d319e51461023c5780633ca62de11461025857806340731c2414610276578063715018a6146102aa578063798e7afa146102b457806380ea3de1146102d057610173565b806304646a49146101785780630b1e7f83146101965780631252cb48146101ca5780632db67945146101e657806335ca0003146101f05780633901342614610220575b600080fd5b6101806104d8565b60405161018d9190611f1d565b60405180910390f35b6101b060048036038101906101ab9190611946565b6104de565b6040516101c1959493929190611cf4565b60405180910390f35b6101e460048036038101906101df91906118f2565b6105d9565b005b6101ee610871565b005b61020a600480360381019061020591906118a0565b610a6b565b6040516102179190611f1d565b60405180910390f35b61023a60048036038101906102359190611946565b610a83565b005b610256600480360381019061025191906118a0565b610a95565b005b610260610c0c565b60405161026d9190611f1d565b60405180910390f35b610290600480360381019061028b9190611946565b610c12565b6040516102a1959493929190611cf4565b60405180910390f35b6102b2610dfd565b005b6102ce60048036038101906102c991906118a0565b610e11565b005b6102ea60048036038101906102e59190611946565b6111b4565b005b6102f46111c6565b6040516103019190611cd9565b60405180910390f35b610324600480360381019061031f91906118a0565b6111ef565b005b610340600480360381019061033b9190611946565b611478565b005b61035c600480360381019061035791906118a0565b61148a565b6040516103699190611d77565b60405180910390f35b61037a6114aa565b6040516103879190611f1d565b60405180910390f35b6103aa60048036038101906103a591906118a0565b6114b7565b6040516103b79190611d77565b60405180910390f35b6103da60048036038101906103d591906118a0565b6114d7565b6040516103e79190611f1d565b60405180910390f35b61040a60048036038101906104059190611946565b6114ef565b6040516104179190611d77565b60405180910390f35b61043a600480360381019061043591906118a0565b61150f565b6040516104479190611f1d565b60405180910390f35b61046a600480360381019061046591906118a0565b611527565b005b6104746115ab565b6040516104819190611f1d565b60405180910390f35b6104a4600480360381019061049f91906118a0565b6115b1565b6040516104b19190611d77565b60405180910390f35b6104c26115d1565b6040516104cf9190611d92565b60405180910390f35b60085481565b600b81815481106104ee57600080fd5b90600052602060002090600502016000915090508060000160009054906101000a900473ffffffffffffffffffffffffffffffffffffffff1690806001018054610537906120b9565b80601f0160208091040260200160405190810160405280929190818152602001828054610563906120b9565b80156105b05780601f10610585576101008083540402835291602001916105b0565b820191906000526020600020905b81548152906001019060200180831161059357829003601f168201915b5050505050908060020154908060030160009054906101000a900460ff16908060040154905085565b600560003373ffffffffffffffffffffffffffffffffffffffff1673ffffffffffffffffffffffffffffffffffffffff16815260200190815260200160002060009054906101000a900460ff1615610666576040517f08c379a000000000000000000000000000000000000000000000000000000000815260040161065d90611efd565b60405180910390fd5b60648111156106aa576040517f08c379a00000000000000000000000000000000000000000000000000000000081526004016106a190611dfd565b60405180910390fd5b6000600b805490509050600b6040518060a001604052803373ffffffffffffffffffffffffffffffffffffffff16815260200185815260200184815260200160001515815260200142815250908060018154018082558091505060019003906000526020600020906005020160009091909190915060008201518160000160006101000a81548173ffffffffffffffffffffffffffffffffffffffff021916908373ffffffffffffffffffffffffffffffffffffffff1602179055506020820151816001019080519060200190610782929190611741565b506040820151816002015560608201518160030160006101000a81548160ff021916908315150217905550608082015181600401555050803373ffffffffffffffffffffffffffffffffffffffff167f59141d2ba0498d14f8ec9adb677d17652b83c50c9ed1a54b5277e618532e1cc48585604051610802929190611dad565b60405180910390a3603c821061086c576001600c600083815260200190815260200160002060006101000a81548160ff021916908315150217905550807f4580940498f910281737072acf0a3bd717459f7204a68738290d6d52416964eb60405160405180910390a25b505050565b600560003373ffffffffffffffffffffffffffffffffffffffff1673ffffffffffffffffffffffffffffffffffffffff16815260200190815260200160002060009054906101000a900460ff166108fd576040517f08c379a00000000000000000000000000000000000000000000000000000000081526004016108f490611edd565b60405180910390fd5b600960003373ffffffffffffffffffffffffffffffffffffffff1673ffffffffffffffffffffffffffffffffffffffff16815260200190815260200160002060009054906101000a900460ff161561098a576040517f08c379a000000000000000000000000000000000000000000000000000000000815260040161098190611e1d565b60405180910390fd5b6001600960003373ffffffffffffffffffffffffffffffffffffffff1673ffffffffffffffffffffffffffffffffffffffff16815260200190815260200160002060006101000a81548160ff02191690831515021790555042600a60003373ffffffffffffffffffffffffffffffffffffffff1673ffffffffffffffffffffffffffffffffffffffff168152602001908152602001600020819055503373ffffffffffffffffffffffffffffffffffffffff167fc126acc0361aad65e5dfeaeca3da4645fa34b2986ac60d7b0541debb36ca046460405160405180910390a2565b60046020528060005260406000206000915090505481565b610a8b6115f7565b8060038190555050565b610a9d6115f7565b600560008273ffffffffffffffffffffffffffffffffffffffff1673ffffffffffffffffffffffffffffffffffffffff16815260200190815260200160002060009054906101000a900460ff16610b29576040517f08c379a0000000000000000000000000000000000000000000000000000000008152600401610b2090611edd565b60405180910390fd5b6000600560008373ffffffffffffffffffffffffffffffffffffffff1673ffffffffffffffffffffffffffffffffffffffff16815260200190815260200160002060006101000a81548160ff0219169083151502179055506000600460008373ffffffffffffffffffffffffffffffffffffffff1673ffffffffffffffffffffffffffffffffffffffff168152602001908152602001600020819055508073ffffffffffffffffffffffffffffffffffffffff167f798117ec059ab8d319461ef2502b1f9d8a47cd966bfd1f3e23b6f26c30bebb7760405160405180910390a250565b60035481565b600060606000806000600b805490508610610c62576040517f08c379a0000000000000000000000000000000000000000000000000000000008152600401610c5990611e5d565b60405180910390fd5b6000600b8781548110610c9e577f4e487b7100000000000000000000000000000000000000000000000000000000600052603260045260246000fd5b90600052602060002090600502016040518060a00160405290816000820160009054906101000a900473ffffffffffffffffffffffffffffffffffffffff1673ffffffffffffffffffffffffffffffffffffffff1673ffffffffffffffffffffffffffffffffffffffff168152602001600182018054610d1d906120b9565b80601f0160208091040260200160405190810160405280929190818152602001828054610d49906120b9565b8015610d965780601f10610d6b57610100808354040283529160200191610d96565b820191906000526020600020905b815481529060010190602001808311610d7957829003601f168201915b50505050508152602001600282015481526020016003820160009054906101000a900460ff16151515158152602001600482015481525050905080600001518160200151826040015183606001518460800151955095509550955095505091939590929450565b610e056115f7565b610e0f6000611675565b565b600560008273ffffffffffffffffffffffffffffffffffffffff1673ffffffffffffffffffffffffffffffffffffffff16815260200190815260200160002060009054906101000a900460ff1615610e9e576040517f08c379a0000000000000000000000000000000000000000000000000000000008152600401610e9590611e7d565b60405180910390fd5b600660003373ffffffffffffffffffffffffffffffffffffffff1673ffffffffffffffffffffffffffffffffffffffff16815260200190815260200160002060009054906101000a900460ff161580610f435750600854600760003373ffffffffffffffffffffffffffffffffffffffff1673ffffffffffffffffffffffffffffffffffffffff16815260200190815260200160002054610f3f9190611fb5565b4210155b610f82576040517f08c379a0000000000000000000000000000000000000000000000000000000008152600401610f7990611e3d565b60405180910390fd5b600460008273ffffffffffffffffffffffffffffffffffffffff1673ffffffffffffffffffffffffffffffffffffffff1681526020019081526020016000206000815480929190610fd2906120eb565b91905055506001600660003373ffffffffffffffffffffffffffffffffffffffff1673ffffffffffffffffffffffffffffffffffffffff16815260200190815260200160002060006101000a81548160ff02191690831515021790555042600760003373ffffffffffffffffffffffffffffffffffffffff1673ffffffffffffffffffffffffffffffffffffffff168152602001908152602001600020819055508073ffffffffffffffffffffffffffffffffffffffff163373ffffffffffffffffffffffffffffffffffffffff167f26131062750e29ebef7f2ab1f77cd654e081050be780a0026f993c9a8baa385a60405160405180910390a3600354600460008373ffffffffffffffffffffffffffffffffffffffff1673ffffffffffffffffffffffffffffffffffffffff16815260200190815260200160002054106111b1576001600560008373ffffffffffffffffffffffffffffffffffffffff1673ffffffffffffffffffffffffffffffffffffffff16815260200190815260200160002060006101000a81548160ff0219169083151502179055508073ffffffffffffffffffffffffffffffffffffffff167fca86d8c91ca6d00afd863578cc633a0901fad724592f89649629fe65f61410d260405160405180910390a25b50565b6111bc6115f7565b8060088190555050565b60008060009054906101000a900473ffffffffffffffffffffffffffffffffffffffff16905090565b6111f76115f7565b600560008273ffffffffffffffffffffffffffffffffffffffff1673ffffffffffffffffffffffffffffffffffffffff16815260200190815260200160002060009054906101000a900460ff1615611284576040517f08c379a000000000000000000000000000000000000000000000000000000000815260040161127b90611efd565b60405180910390fd5b600254600160009054906101000a900473ffffffffffffffffffffffffffffffffffffffff1673ffffffffffffffffffffffffffffffffffffffff166370a08231306040518263ffffffff1660e01b81526004016112e29190611cd9565b60206040518083038186803b1580156112fa57600080fd5b505afa15801561130e573d6000803e3d6000fd5b505050506040513d601f19601f82011682018060405250810190611332919061196f565b1015611373576040517f08c379a000000000000000000000000000000000000000000000000000000000815260040161136a90611ebd565b60405180910390fd5b600160009054906101000a900473ffffffffffffffffffffffffffffffffffffffff1673ffffffffffffffffffffffffffffffffffffffff1663a9059cbb826002546040518363ffffffff1660e01b81526004016113d2929190611d4e565b602060405180830381600087803b1580156113ec57600080fd5b505af1158015611400573d6000803e3d6000fd5b505050506040513d601f19601f8201168201806040525081019061142491906118c9565b508073ffffffffffffffffffffffffffffffffffffffff167fe2403640ba68fed3a2f88b7557551d1993f84b99bb10ff833f0cf8db0c5e048660025460405161146d9190611f1d565b60405180910390a250565b6114806115f7565b8060028190555050565b60096020528060005260406000206000915054906101000a900460ff1681565b6000600b80549050905090565b60066020528060005260406000206000915054906101000a900460ff1681565b600a6020528060005260406000206000915090505481565b600c6020528060005260406000206000915054906101000a900460ff1681565b60076020528060005260406000206000915090505481565b61152f6115f7565b600073ffffffffffffffffffffffffffffffffffffffff168173ffffffffffffffffffffffffffffffffffffffff16141561159f576040517f08c379a000000000000000000000000000000000000000000000000000000000815260040161159690611ddd565b60405180910390fd5b6115a881611675565b50565b60025481565b60056020528060005260406000206000915054906101000a900460ff1681565b600160009054906101000a900473ffffffffffffffffffffffffffffffffffffffff1681565b6115ff611739565b73ffffffffffffffffffffffffffffffffffffffff1661161d6111c6565b73ffffffffffffffffffffffffffffffffffffffff1614611673576040517f08c379a000000000000000000000000000000000000000000000000000000000815260040161166a90611e9d565b60405180910390fd5b565b60008060009054906101000a900473ffffffffffffffffffffffffffffffffffffffff169050816000806101000a81548173ffffffffffffffffffffffffffffffffffffffff021916908373ffffffffffffffffffffffffffffffffffffffff1602179055508173ffffffffffffffffffffffffffffffffffffffff168173ffffffffffffffffffffffffffffffffffffffff167f8be0079c531659141344cd1fd0a4f28419497f9722a3daafe3b4186f6b6457e060405160405180910390a35050565b600033905090565b82805461174d906120b9565b90600052602060002090601f01602090048101928261176f57600085556117b6565b82601f1061178857805160ff19168380011785556117b6565b828001600101855582156117b6579182015b828111156117b557825182559160200191906001019061179a565b5b5090506117c391906117c7565b5090565b5b808211156117e05760008160009055506001016117c8565b5090565b60006117f76117f284611f69565b611f38565b90508281526020810184848401111561180f57600080fd5b61181a848285612077565b509392505050565b600081359050611831816121d2565b92915050565b600081519050611846816121e9565b92915050565b600082601f83011261185d57600080fd5b813561186d8482602086016117e4565b91505092915050565b60008135905061188581612200565b92915050565b60008151905061189a81612200565b92915050565b6000602082840312156118b257600080fd5b60006118c084828501611822565b91505092915050565b6000602082840312156118db57600080fd5b60006118e984828501611837565b91505092915050565b6000806040838503121561190557600080fd5b600083013567ffffffffffffffff81111561191f57600080fd5b61192b8582860161184c565b925050602061193c85828601611876565b9150509250929050565b60006020828403121561195857600080fd5b600061196684828501611876565b91505092915050565b60006020828403121561198157600080fd5b600061198f8482850161188b565b91505092915050565b6119a18161200b565b82525050565b6119b08161201d565b82525050565b6119bf81612053565b82525050565b60006119d082611f99565b6119da8185611fa4565b93506119ea818560208601612086565b6119f3816121c1565b840191505092915050565b6000611a0b602683611fa4565b91507f4f776e61626c653a206e6577206f776e657220697320746865207a65726f206160008301527f64647265737300000000000000000000000000000000000000000000000000006020830152604082019050919050565b6000611a71601783611fa4565b91507f496e76616c69642076756c6761726974792073636f72650000000000000000006000830152602082019050919050565b6000611ab1602a83611fa4565b91507f5573657220616c72656164792068617320612070656e64696e6720756e626c6f60008301527f636b2072657175657374000000000000000000000000000000000000000000006020830152604082019050919050565b6000611b17601883611fa4565b91507f436f6f6c646f776e20706572696f64206e6f74206f76657200000000000000006000830152602082019050919050565b6000611b57601383611fa4565b91507f506f737420646f6573206e6f74206578697374000000000000000000000000006000830152602082019050919050565b6000611b97601783611fa4565b91507f5573657220697320616c726561647920626c6f636b65640000000000000000006000830152602082019050919050565b6000611bd7602083611fa4565b91507f4f776e61626c653a2063616c6c6572206973206e6f7420746865206f776e65726000830152602082019050919050565b6000611c17601a83611fa4565b91507f496e73756666696369656e7420746f6b656e2062616c616e63650000000000006000830152602082019050919050565b6000611c57601383611fa4565b91507f55736572206973206e6f7420626c6f636b6564000000000000000000000000006000830152602082019050919050565b6000611c97600f83611fa4565b91507f5573657220697320626c6f636b656400000000000000000000000000000000006000830152602082019050919050565b611cd381612049565b82525050565b6000602082019050611cee6000830184611998565b92915050565b600060a082019050611d096000830188611998565b8181036020830152611d1b81876119c5565b9050611d2a6040830186611cca565b611d3760608301856119a7565b611d446080830184611cca565b9695505050505050565b6000604082019050611d636000830185611998565b611d706020830184611cca565b9392505050565b6000602082019050611d8c60008301846119a7565b92915050565b6000602082019050611da760008301846119b6565b92915050565b60006040820190508181036000830152611dc781856119c5565b9050611dd66020830184611cca565b9392505050565b60006020820190508181036000830152611df6816119fe565b9050919050565b60006020820190508181036000830152611e1681611a64565b9050919050565b60006020820190508181036000830152611e3681611aa4565b9050919050565b60006020820190508181036000830152611e5681611b0a565b9050919050565b60006020820190508181036000830152611e7681611b4a565b9050919050565b60006020820190508181036000830152611e9681611b8a565b9050919050565b60006020820190508181036000830152611eb681611bca565b9050919050565b60006020820190508181036000830152611ed681611c0a565b9050919050565b60006020820190508181036000830152611ef681611c4a565b9050919050565b60006020820190508181036000830152611f1681611c8a565b9050919050565b6000602082019050611f326000830184611cca565b92915050565b6000604051905081810181811067ffffffffffffffff82111715611f5f57611f5e612192565b5b8060405250919050565b600067ffffffffffffffff821115611f8457611f83612192565b5b601f19601f8301169050602081019050919050565b600081519050919050565b600082825260208201905092915050565b6000611fc082612049565b9150611fcb83612049565b9250827fffffffffffffffffffffffffffffffffffffffffffffffffffffffffffffffff0382111561200057611fff612134565b5b828201905092915050565b600061201682612029565b9050919050565b60008115159050919050565b600073ffffffffffffffffffffffffffffffffffffffff82169050919050565b6000819050919050565b600061205e82612065565b9050919050565b600061207082612029565b9050919050565b82818337600083830152505050565b60005b838110156120a4578082015181840152602081019050612089565b838111156120b3576000848401525b50505050565b600060028204905060018216806120d157607f821691505b602082108114156120e5576120e4612163565b5b50919050565b60006120f682612049565b91507fffffffffffffffffffffffffffffffffffffffffffffffffffffffffffffffff82141561212957612128612134565b5b600182019050919050565b7f4e487b7100000000000000000000000000000000000000000000000000000000600052601160045260246000fd5b7f4e487b7100000000000000000000000000000000000000000000000000000000600052602260045260246000fd5b7f4e487b7100000000000000000000000000000000000000000000000000000000600052604160045260246000fd5b6000601f19601f8301169050919050565b6121db8161200b565b81146121e657600080fd5b50565b6121f28161201d565b81146121fd57600080fd5b50565b61220981612049565b811461221457600080fd5b5056fea26469706673582212205b68a27ceb0c1b7767b7cbb947f91088808c2e870f45ec7b4e3b3a2b50a843cc64736f6c63430008000033",
  "immutableReferences": {},
  "source": "// SPDX-License-Identifier: MIT\npragma solidity ^0.8.0;\n\nimport \"@openzeppelin/contracts/access/Ownable.sol\";\nimport \"./MediaGuardToken.sol\";\n\ncontract MediaGuard is Ownable {\n    MediaGuardToken public token;\n    uint256 public rewardAmount = 10 * 10**18; // 10 tokens\n    uint256 public reportThreshold = 3;\n    mapping(address => uint256) public reportCount;\n    mapping(address => bool) public isBlocked;\n    mapping(address => bool) public hasReported;\n    mapping(address => uint256) public lastReportTime;\n    uint256 public cooldownPeriod = 1 days;\n    mapping(address => bool) public hasUnblockRequest;\n    mapping(address => uint256) public unblockRequestDate;\n\n    // Post-related state variables\n    struct Post {\n        address author;\n        string contentHash;\n        uint256 vulgarityScore;\n        bool isBlocked;\n        uint256 createdAt;\n    }\n    Post[] public posts;\n    mapping(uint256 => bool) public isPostBlocked;\n\n    event ContentReported(address indexed reporter, address indexed reported);\n    event UserBlocked(address indexed user);\n    event UserUnblocked(address indexed user);\n    event RewardPaid(address indexed user, uint256 amount);\n    event PostCreated(address indexed author, uint256 indexed postId, string contentHash, uint256 vulgarityScore);\n    event PostBlocked(uint256 indexed postId);\n    event UnblockRequested(address indexed user);\n\n    constructor(address _tokenAddress) {\n        token = MediaGuardToken(_tokenAddress);\n    }\n\n    function createPost(string memory _contentHash, uint256 _vulgarityScore) external {\n        require(!isBlocked[msg.sender], \"User is blocked\");\n        require(_vulgarityScore <= 100, \"Invalid vulgarity score\");\n\n        uint256 postId = posts.length;\n        posts.push(Post({\n            author: msg.sender,\n            contentHash: _contentHash,\n            vulgarityScore: _vulgarityScore,\n            isBlocked: false,\n            createdAt: block.timestamp\n        }));\n\n        emit PostCreated(msg.sender, postId, _contentHash, _vulgarityScore);\n\n        // Block post if vulgarity score is too high\n        if (_vulgarityScore >= 60) {\n            isPostBlocked[postId] = true;\n            emit PostBlocked(postId);\n        }\n    }\n\n    function getPost(uint256 _postId) external view returns (\n        address author,\n        string memory contentHash,\n        uint256 vulgarityScore,\n        bool isBlocked,\n        uint256 createdAt\n    ) {\n        require(_postId < posts.length, \"Post does not exist\");\n        Post memory post = posts[_postId];\n        return (\n            post.author,\n            post.contentHash,\n            post.vulgarityScore,\n            post.isBlocked,\n            post.createdAt\n        );\n    }\n\n    function getPostCount() external view returns (uint256) {\n        return posts.length;\n    }\n\n    function requestUnblock() external {\n        require(isBlocked[msg.sender], \"User is not blocked\");\n        require(!hasUnblockRequest[msg.sender], \"User already has a pending unblock request\");\n        \n        hasUnblockRequest[msg.sender] = true;\n        unblockRequestDate[msg.sender] = block.timestamp;\n        \n        emit UnblockRequested(msg.sender);\n    }\n\n    function reportContent(address reportedUser) external {\n        require(!isBlocked[reportedUser], \"User is already blocked\");\n        require(!hasReported[msg.sender] || block.timestamp >= lastReportTime[msg.sender] + cooldownPeriod, \"Cooldown period not over\");\n        \n        reportCount[reportedUser]++;\n        hasReported[msg.sender] = true;\n        lastReportTime[msg.sender] = block.timestamp;\n\n        emit ContentReported(msg.sender, reportedUser);\n\n        if (reportCount[reportedUser] >= reportThreshold) {\n            isBlocked[reportedUser] = true;\n            emit UserBlocked(reportedUser);\n        }\n    }\n\n    function unblockUser(address user) external onlyOwner {\n        require(isBlocked[user], \"User is not blocked\");\n        isBlocked[user] = false;\n        reportCount[user] = 0;\n        emit UserUnblocked(user);\n    }\n\n    function payReward(address user) external onlyOwner {\n        require(!isBlocked[user], \"User is blocked\");\n        require(token.balanceOf(address(this)) >= rewardAmount, \"Insufficient token balance\");\n        \n        token.transfer(user, rewardAmount);\n        emit RewardPaid(user, rewardAmount);\n    }\n\n    function setRewardAmount(uint256 _amount) external onlyOwner {\n        rewardAmount = _amount;\n    }\n\n    function setReportThreshold(uint256 _threshold) external onlyOwner {\n        reportThreshold = _threshold;\n    }\n\n    function setCooldownPeriod(uint256 _period) external onlyOwner {\n        cooldownPeriod = _period;\n    }\n} ",
  "sourcePath": "/Users/ms/Desktop/MediaGuard-Blockchain/MediaGuardBC/contracts/MediaGuard.sol",
  "compiler": {
    "name": "solc",
    "version": "0.8.0+commit.c7dfd78e.Emscripten.clang"
  },
  "schemaVersion": "3.4.16",
  "updatedAt": "2025-03-28T13:19:25.584Z",
  "networkType": "ethereum",
  "devdoc": {
    "kind": "dev",
    "methods": {
      "owner()": {
        "details": "Returns the address of the current owner."
      },
      "renounceOwnership()": {
        "details": "Leaves the contract without owner. It will not be possible to call `onlyOwner` functions. Can only be called by the current owner. NOTE: Renouncing ownership will leave the contract without an owner, thereby disabling any functionality that is only available to the owner."
      },
      "transferOwnership(address)": {
        "details": "Transfers ownership of the contract to a new account (`newOwner`). Can only be called by the current owner."
      }
    },
    "version": 1
  },
  "userdoc": {
    "kind": "user",
    "methods": {},
    "version": 1
  }
}